{
  "_format": "hh-sol-artifact-1",
  "contractName": "IPFShashStorage",
  "sourceName": "contracts/IPFShashStorage.sol",
  "abi": [
    {
      "inputs": [
        {
          "internalType": "string",
          "name": "fileName",
          "type": "string"
        }
      ],
      "name": "getIPFSHash",
      "outputs": [
        {
          "internalType": "string",
          "name": "",
          "type": "string"
        }
      ],
      "stateMutability": "view",
      "type": "function"
    },
    {
      "inputs": [
        {
          "internalType": "string",
          "name": "fileName",
          "type": "string"
        }
      ],
      "name": "isFileStored",
      "outputs": [
        {
          "internalType": "bool",
          "name": "",
          "type": "bool"
        }
      ],
      "stateMutability": "view",
      "type": "function"
    },
    {
      "inputs": [
        {
          "internalType": "string",
          "name": "fileName",
          "type": "string"
        },
        {
          "internalType": "string",
          "name": "ipfsHash",
          "type": "string"
        }
      ],
      "name": "upload",
      "outputs": [],
      "stateMutability": "nonpayable",
      "type": "function"
    }
  ],
  "bytecode": "0x608060405234801561001057600080fd5b50610860806100206000396000f3fe608060405234801561001057600080fd5b50600436106100415760003560e01c8063202e4936146100465780634a5f66c114610062578063e0956ad014610092575b600080fd5b610060600480360381019061005b91906104fd565b6100c2565b005b61007c60048036038101906100779190610575565b6101a5565b6040516100899190610646565b60405180910390f35b6100ac60048036038101906100a79190610575565b6102c7565b6040516100b99190610683565b60405180910390f35b600080836040516100d391906106da565b908152602001604051809103902060010180546100ef90610720565b905014610131576040517f08c379a00000000000000000000000000000000000000000000000000000000081526004016101289061079e565b60405180910390fd5b60405180604001604052808381526020018281525060008360405161015691906106da565b90815260200160405180910390206000820151816000019080519060200190610180929190610300565b50602082015181600101908051906020019061019d929190610300565b509050505050565b6060600080836040516101b891906106da565b908152602001604051809103902060010180546101d490610720565b905011610216576040517f08c379a000000000000000000000000000000000000000000000000000000000815260040161020d9061080a565b60405180910390fd5b60008260405161022691906106da565b9081526020016040518091039020600101805461024290610720565b80601f016020809104026020016040519081016040528092919081815260200182805461026e90610720565b80156102bb5780601f10610290576101008083540402835291602001916102bb565b820191906000526020600020905b81548152906001019060200180831161029e57829003601f168201915b50505050509050919050565b6000806000836040516102da91906106da565b908152602001604051809103902060010180546102f690610720565b9050119050919050565b82805461030c90610720565b90600052602060002090601f01602090048101928261032e5760008555610375565b82601f1061034757805160ff1916838001178555610375565b82800160010185558215610375579182015b82811115610374578251825591602001919060010190610359565b5b5090506103829190610386565b5090565b5b8082111561039f576000816000905550600101610387565b5090565b6000604051905090565b600080fd5b600080fd5b600080fd5b600080fd5b6000601f19601f8301169050919050565b7f4e487b7100000000000000000000000000000000000000000000000000000000600052604160045260246000fd5b61040a826103c1565b810181811067ffffffffffffffff82111715610429576104286103d2565b5b80604052505050565b600061043c6103a3565b90506104488282610401565b919050565b600067ffffffffffffffff821115610468576104676103d2565b5b610471826103c1565b9050602081019050919050565b82818337600083830152505050565b60006104a061049b8461044d565b610432565b9050828152602081018484840111156104bc576104bb6103bc565b5b6104c784828561047e565b509392505050565b600082601f8301126104e4576104e36103b7565b5b81356104f484826020860161048d565b91505092915050565b60008060408385031215610514576105136103ad565b5b600083013567ffffffffffffffff811115610532576105316103b2565b5b61053e858286016104cf565b925050602083013567ffffffffffffffff81111561055f5761055e6103b2565b5b61056b858286016104cf565b9150509250929050565b60006020828403121561058b5761058a6103ad565b5b600082013567ffffffffffffffff8111156105a9576105a86103b2565b5b6105b5848285016104cf565b91505092915050565b600081519050919050565b600082825260208201905092915050565b60005b838110156105f85780820151818401526020810190506105dd565b83811115610607576000848401525b50505050565b6000610618826105be565b61062281856105c9565b93506106328185602086016105da565b61063b816103c1565b840191505092915050565b60006020820190508181036000830152610660818461060d565b905092915050565b60008115159050919050565b61067d81610668565b82525050565b60006020820190506106986000830184610674565b92915050565b600081905092915050565b60006106b4826105be565b6106be818561069e565b93506106ce8185602086016105da565b80840191505092915050565b60006106e682846106a9565b915081905092915050565b7f4e487b7100000000000000000000000000000000000000000000000000000000600052602260045260246000fd5b6000600282049050600182168061073857607f821691505b6020821081141561074c5761074b6106f1565b5b50919050565b7f46696c6520616c72656164792065786973747300000000000000000000000000600082015250565b60006107886013836105c9565b915061079382610752565b602082019050919050565b600060208201905081810360008301526107b78161077b565b9050919050565b7f46696c65206e6f7420666f756e64000000000000000000000000000000000000600082015250565b60006107f4600e836105c9565b91506107ff826107be565b602082019050919050565b60006020820190508181036000830152610823816107e7565b905091905056fea2646970667358221220af523a14f20077c79b314c64c8edfddd1553209ef4ae97c43999037543aa764164736f6c634300080b0033",
  "linkReferences": {},
  "deployedLinkReferences": {}
}